:060000000A128A110C280F
:10000800FE00030EF2000A08F3000A128A111728EC
:100018000A128A110F28F501F601F701F801830188
:100028000A128A117B29831203130C1F1C281D280E
:100038007F281F0CF000700C0F39063A031D252885
:10004800262847281E08F0000310700C7C3E9500F7
:100058001E080139F000F00EF00D17087006DF39A0
:10006800700697001E08F00007300310F00CFF3EE2
:10007800031D39287008F100F10E17087106EF39D1
:10008800710697007D281F0CF000700C0F39053A97
:10009800031D4F28502870281E08F0000310700C0C
:1000A8007C3E9B001E080139F000F00E1D0870060A
:1000B800EF3970069D001E08F00007300310F00CA1
:1000C800FF3E031D62287008F100F10E1D0871063D
:1000D800EF3971069D007D281F0CF000700C0F3958
:1000E800073A031D782879287D281E08F000700833
:1000F800F8000C13AC280B1D82288328AC280B11A0
:10010800383081007508013EF50076080318013E75
:10011800003EF6001A3075067604031D94289528CB
:100128009728F501F6017608803AF00080307002D1
:10013800031DA028770875020318A328A428A92856
:100148000130831203138800AC288312031388013B
:1001580073088A00720E8300FE0E7E0E0900831259
:100168000313A501A11FB928BA28C128A009A1090C
:10017800A00A0319A10AA501A50AA31FC428C52816
:10018800CE28A209A309A20A0319A30A0130F40080
:100198007408A506A601A701200821040319D5287B
:1001A800D6280D29A401A40AE42801300310A00DC3
:1001B800A10DFF3E031DDA280130F4007408A407DE
:1001C800A11FE728E828D92801300310A60DA70D9C
:1001D800FF3E031DE92821082302031DF5282008F6
:1001E8002202031CF828F92800292008A202210865
:1001F800031CA303A302261401300310A10CA00CB6
:10020800FF3E031D01290130A402031D0C290D29FD
:10021800E82825080319112912291729A609A70969
:10022800A60A0319A70A2708A1002608A0000800A3
:10023800E0308316031788008901073083160313FB
:10024800890088018312031389018801703083169D
:1002580003138F040F149F139F121F12831203138B
:100268001F083F3940389F001F08C33914389F00C2
:100278001F142130F400F40B3F29831603130715CC
:100288008714F93092003F3083120313970517083B
:10029800F0390C3897000F309500CF3097050F30A4
:1002A8009B001D08F0390C389D001D129D128C1002
:1002B8000330920412158C1C622963295F290C08EB
:1002C800831603130711871081120112811501117A
:1002D8008110011038308312031381000C13831628
:1002E80003130C170B178B178B160B1108000A1228
:1002F8008A111C210A128A11831203139F149F1852
:1003080086298729BA291F0CA800280C0F39073A13
:10031800031D8F29902995291F08C33918389F0074
:10032800B0291F0CA800280C0F39063A031D9D2977
:100338009E29A3291F08C33914389F00B0291F0C10
:10034800A800280C0F39053A031DAB29AC29B029A0
:100358001F08C3391C389F00203083120313A800DC
:10036800A80BB4290000831203139F140A30A000BD
:100378000030A1007808A800A9012808A2002908CF
:10038800A3000A128A11B3200A128A1183120313D6
:100398002008AA002A08F70083290A128A110C28C3
:04400E00D420FF3F7C
:00000001FF
